:10000000ACEF10F012001200D3EF0BF01200C29010
:100010009D9C1200C282120043EF0CF012000100FE
:10002000A0210000D000000004000000D9CFE6FFAE
:10003000E1CFD9FF82E95DC0E9FF5EC0EAFF1C0E97
:10004000E926000EEA2200EBEFFF5DC0E9FF5EC08B
:10005000EAFF0D0EE926000EEA22120EEF6EC76AC5
:10006000C66AC56AC78EC686280EC86EC68A9486BA
:10007000948841E9E7CFD9FF1200D9CFE6FFE1CF5D
:10008000D9FF82E95DC0E9FF5EC0EAFF1C0EE926E8
:10009000000EEA2200EBEFFF41E9E7CFD9FF1200A3
:1000A000D9CFE6FFE1CFD9FF84E95DC0E9FF5EC0AB
:1000B000EAFF0D0EEB50120802E0FF0E65D05DC0A6
:1000C000E9FF5EC0EAFF1A0EE926000EEA22EF6A97
:1000D0005DC0E9FF5EC0EAFF1A0EEB50D880025403
:1000E00032E25DC0E9FF5EC0EAFF1A0EEB50002469
:1000F000E96E000E0120EA6EEF50E66E5DC0E9FF8A
:100100005EC0EAFF100EE926000EEA22E9CF4BF0AE
:10011000EACF4CF05DC0E9FF5EC0EAFF1A0EEB507B
:100120000001EA6A4B25E96E4C51EA22E552E7509C
:10013000EF6E5DC0E9FF5EC0EAFF1A0EE926000E11
:10014000EA22EF2AC5D75DC0E9FF5EC0EAFF1A0EBA
:10015000E926000EEA2202EBEFFF5DC0E9FF5EC078
:10016000EAFF1B0EE926000EEA22EF6A5DC0E9FFF6
:100170005EC0EAFF0D0EE926000EEA22090EEF6EC0
:10018000C580C5B0FED7000E41E9E7CFD9FF120008
:10019000D9CFE6FFE1CFD9FF82E95DC0E9FF5EC0BC
:1001A000EAFF0D0EEB50120802E0FF0E21D05DC0F9
:1001B000E9FF5EC0EAFF0A0EE926000EEA22EF6AB6
:1001C0005DC0E9FF5EC0EAFF0B0EE926000EEA22E1
:1001D00000EBEFFF5DC0E9FF5EC0EAFF0D0EE92610
:1001E000000EEA220A0EEF6EC580C5B0FED7000EE3
:1001F00041E9E7CFD9FF12005DC0F3FF5EC0F4FF15
:100200001200D9CFE6FFE1CFD9FF84E95DC0E9FF55
:100210005EC0EAFF1A0EE926000EEA22EF6A5DC010
:10022000E9FF5EC0EAFF1A0EEB50D880025432E2BA
:100230005DC0E9FF5EC0EAFF1A0EEB500024E96ED4
:10024000000E0120EA6EEF50E66E5DC0E9FF5EC071
:10025000EAFF100EE926000EEA22E9CF4BF0EACFC2
:100260004CF05DC0E9FF5EC0EAFF1A0EEB500001E2
:10027000EA6A4B25E96E4C51EA22E552E750EF6EEF
:100280005DC0E9FF5EC0EAFF1A0EE926000EEA2211
:10029000EF2AC5D75DC0E9FF5EC0EAFF1A0EE92666
:1002A000000EEA2202EBEFFF5DC0E9FF5EC0EAFF4D
:1002B0001B0EE926000EEA22010EEF6E5DC0E9FF7B
:1002C0005EC0EAFF100EEB50C96EC68841E9E7CF69
:1002D000D9FF1200D9CFE6FFE1CFD9FF82E95DC097
:1002E000E9FF5EC0EAFF0C0EE926000EEA22010ECD
:1002F000EF6E5DC0E9FF5EC0EAFF0B0EE926000E5F
:10030000EA22EF6A005035E0C7AA1DD05DC0E9FFC0
:100310005EC0EAFF0D0EE926000EEA22050EEF6E22
:100320005DC0E9FF5EC0EAFF0F0EE926000EEA227B
:10033000EF2A5DC0E9FF5EC0EAFF0E0EE926000E5F
:10034000EA22050E1FD0C7A40AD05DC0E9FF5EC037
:10035000EAFF0D0EE926000EEA22080E13D05DC05A
:10036000E9FF5EC0EAFF0D0EE926000EEA22070E45
:1003700009D05DC0E9FF5EC0EAFF0D0EE926000E60
:10038000EA22060EEF6E41E9E7CFD9FF1200D9CF7E
:10039000E6FFE1CFD9FF81E94AE8026A036A046A0D
:1003A000056A066A076AC6AC20D0C69C5DC0E9FF34
:1003B0005EC0EAFF0D0EE926000EEA22050EEF6E82
:1003C000010E076E5DC0E9FF5EC0EAFF0F0EE92671
:1003D000000EEA22EF2A5DC0E9FF5EC0EAFF0E0EC2
:1003E000E926000EEA22040EEF6EC7A004D0C95021
:1003F000016E010E026E075001E05FD15DC0E9FFA2
:100400005EC0EAFF0D0EEB50070A01E1B4D00F0AFF
:1004100001E17FD00E0A16E0030A01E04ED1C7A623
:100420004CD102EBE6FF56DF41E95DC0E9FF5EC05B
:10043000EAFF0D0EEB50080801E03FD1026A010E01
:10044000066E3BD1C7A822D05DC0E9FF5EC0EAFFBF
:100450000C0EE926000EEA22EF2A025001E123D118
:10046000C7AAD1D05DC0E9FF5EC0EAFF0F0EE92642
:10047000000EEA22EF2A5DC0E9FF5EC0EAFF0E0E21
:10048000E926000EEA22060EEF6E0DD1025001E1C0
:1004900014D15DC0E9FF5EC0EAFF0C0EE926000E34
:1004A000EA22EF2AC7BA18D0C7B40AD05DC0E9FF64
:1004B0005EC0EAFF0D0EE926000EEA22070EFCD010
:1004C0005DC0E9FF5EC0EAFF0D0EE926000EEA22DC
:1004D000080EEF6E010ED1D05DC0E9FF5EC0EAFFED
:1004E0000F0EE926000EEA22EF2A5DC0E9FF5EC08A
:1004F000EAFF0D0EE926000EEA22050EEF6E5DC042
:10050000E9FF5EC0EAFF0E0EE926000EEA22060EA3
:10051000D3D05DC0E9FF5EC0EAFF1B0EEB500001C7
:100520004B6F1A0EEB504B5D01E3BDD05DC0E9FF90
:100530005EC0EAFF100EE926000EEA22E9CF4BF07A
:10054000EACF4CF05DC0E9FF5EC0EAFF1B0EEB5046
:10055000EA6A4B25E96E4C51EA22EF50C96E5DC044
:10056000E9FF5EC0EAFF1B0EE926000EEA22EF2A31
:10057000010E036EA2D0C7A849D05DC0E9FF5EC0DE
:10058000EAFF0C0EE926000EEA22EF2A02503BE0B9
:10059000C7AA1CD05DC0E9FF5EC0EAFF5DC04BF09A
:1005A0005EC04CF00B0EEB500001EA6A4B25E96E81
:1005B0004C51EA2201EBEFFF5DC0E9FF5EC0EAFFAC
:1005C0000B0EE926000EEA22EF2A1DD05DC0E9FFDE
:1005D0005EC0EAFF0F0EE926000EEA22EF2A5DC098
:1005E000E9FF5EC0EAFF0E0EE926000EEA22060EC3
:1005F000EF6E5DC0E9FF5EC0EAFF0D0EE926000E5A
:10060000EA22050E4FD0010E056E4DD0025055E086
:100610005DC0E9FF5EC0EAFF0C0EE926000EEA228B
:10062000EF2AC7AA1CD05DC0E9FF5EC0EAFF5DC02B
:100630004BF05EC04CF00B0EEB500001EA6A4B250C
:10064000E96E4C51EA2201EBEFFF5DC0E9FF5EC0AD
:10065000EAFF0B0EE926000EEA22EF2A2ED0C7A4ED
:100660000FD05DC0E9FF5EC0EAFF0D0EE926000E67
:10067000EA22080EEF6E010E056E066E026A1DD0AC
:100680005DC0E9FF5EC0EAFF0F0EE926000EEA2218
:10069000EF2A5DC0E9FF5EC0EAFF0E0EE926000EFC
:1006A000EA22060EEF6E5DC0E9FF5EC0EAFF0D0EA6
:1006B000E926000EEA22050EEF6E025002E1035019
:1006C00002E0C6A8C6885DC0E9FF5EC0EAFF0B0E67
:1006D000EB5008081FE205501DE15DC0E9FF5EC058
:1006E000EAFF0D0EE926000EEA22050EEF6E5DC050
:1006F000E9FF5EC0EAFF0F0EE926000EEA22EF2AAC
:100700005DC0E9FF5EC0EAFF0E0EE926000EEA2298
:10071000070EEF6E055031E05DC0E9FF5EC0EAFFF5
:100720000C0EEB50E66E5DC04BF05EC04CF00B0E55
:10073000EB500001EA6A4B25E96E4C51EA22E55282
:10074000E750EF6E5DC0E9FF5EC0EAFF5DC04BF0B1
:100750005EC04CF05DC0E6FF5EC0E6FF280EE66EB0
:100760000B0EEB50010FE66E5EEC08F044E95DC045
:10077000E9FF5EC0EAFF0B0E29D05DC0E9FF5EC055
:10078000EAFF0F0EEB5000014B6F010E4B5D22E3B1
:100790005DC0E9FF5EC0EAFF0F0EEB50086E0E0E63
:1007A000EB50096E0C0EEB500A6ED950080FE66E36
:1007B000DACFE6FF290EE66E030EE66E5EEC08F079
:1007C00044E95DC0E9FF5EC0EAFF0F0EE926000EB6
:1007D000EA22EF6A065013E05DC0E9FF5EC0EAFF5F
:1007E0005DC04BF05EC04CF05DC0E6FF5EC0E6FF52
:1007F0002A0EE66EE66A5EEC08F044E9066A4BE90A
:10080000E7CFD9FF1200D9CFE6FFE1CFD9FF83E9C7
:1008100000EB5DF001EB5EF05DC0E9FF5EC0EAFF5A
:100820000B0EE926000EEA22EF6A5DC0E9FF5EC00A
:10083000EAFF0C0EE926000EEA22EF6A5DC0E9FF2E
:100840005EC0EAFF0D0EE926000EEA22050EEF6EED
:100850005DC0E9FF5EC0EAFF0F0EE926000EEA2246
:10086000EF6A41E9E7CFD9FF1200D9CFE6FFE1CF28
:10087000D9FF82E99486948800EBC8FFC76AC66AEC
:10088000C56A0E0EC612C78E94869488C580C68A25
:1008900041E9E7CFD9FF1200AB8E948E949CAC98BF
:1008A0001200D9CFE6FFE1CFD9FF81E942E8CEC0FF
:1008B000E9FFCFC0EAFF090EEB5000014B6F080EB5
:1008C000EB504B5D3BE1CEC0E9FFCFC0EAFFCEC0AD
:1008D0004BF0CFC04CF0CEC0E6FFCFC0E6FFD95002
:1008E000010FE66EDACFE6FF0A0EE66EA5EC08F021
:1008F00045E9026ECEC0E9FFCFC0EAFF090EE92646
:10090000000EEA22EF6AFC0E025C03E01D0E015CA1
:100910000BE0CEC0E9FFCFC0EAFF080EE926000ECB
:10092000EA22EF6A9D982AD0CEC0E9FFCFC0EAFF45
:10093000080EE926000EEA2202EBEFFFACA21ED061
:10094000CEC0E9FFCFC0EAFFCEC04BF0CFC04CF025
:10095000090EEB500001EA6A4B25E96E4C51EA2280
:10096000EFCFE6FF67EC10F041E9CEC0E9FFCFC062
:10097000EAFF090EE926000EEA22EF2A43E9E7CF53
:10098000D9FF1200D9CFE6FFE1CFD9FF84E900EB10
:10099000E6FF01EBE6FF1D0EE66E02EBE6FF8EECD6
:1009A00008F044E99D8841E9E7CFD9FF1200D9CF8B
:1009B000E6FFE1CFD9FF82E9FF0E005C1CE1CCC06D
:1009C000E9FFCDC0EAFF00EBEFFFCCC0E9FFCDC0EF
:1009D000EAFF080EE926000EEA22010EEF6ECCC0F7
:1009E000E9FFCDC0EAFF0B0EE926000EEA22020E57
:1009F000EF6E010E01D0000E41E9E7CFD9FF1200E2
:100A0000D9CFE6FFE1CFD9FF82E945E8026A036A60
:100A1000046A056AFF0E005C13E1CCC0E9FFCDC09B
:100A2000EAFF0B0EE926000EEA22010EEF6ECCC0A3
:100A3000E9FFCDC0EAFF080EE926000EEA22EF6AC0
:100A4000CCC0E9FFCDC0EAFFCCC04BF0CDC04CF02C
:100A5000080EEB500001EA6A4B25E96E4C51EA2280
:100A600000EBEFFFCCC0E9FFCDC0EAFF0B0EEB506F
:100A7000056EEF50026EE92A000EEA22EF50036E77
:100A8000CCC0E9FFCDC0EAFF020EE926000EEA2243
:100A9000EF50046ECCC0E9FFCDC0EAFF0B0EEB5067
:100AA000050A01E1A7D0010A01E186D0070A4BE05F
:100AB000010A1AE0030A01E00AD1FF0E025C01E01C
:100AC00006D1CCC0E9FFCDC0EAFF080EE926000E32
:100AD000EA22EF2ACCC0E9FFCDC0EAFF0B0EE926DF
:100AE000000EEA22020EF2D003504F0A15E0500A1F
:100AF00013E0CCC0E9FFCDC0EAFF080EE926000EE6
:100B0000EA22EF2ACCC0E9FFCDC0EAFF0B0EE926AE
:100B1000000EEA22030EDAD0CCC0E9FFCDC0EAFF16
:100B2000CCC04BF0CDC04CF04B2B000E4C234BC037
:100B3000E6FF4CC0E6FF1F0EE66E010EE66E2EECE1
:100B400008F044E9A8D00450A20A19E0030A03E01F
:100B5000100A01E0A0D0CCC0E9FFCDC0EAFF0A0E28
:100B6000E926000EEA22020EEF6ECCC0E9FFCDC0EE
:100B7000EAFF080EE926000EEA22EF2A31D0CCC0A7
:100B8000E9FFCDC0EAFF0A0EE926000EEA22040EB4
:100B9000EF6ECCC0E9FFCDC0EAFF080EE926000EDB
:100BA000EA22EF2ACCC0E9FFCDC0EAFF0B0EE9260E
:100BB000000EEA22040E8AD0CCC0E9FFCDC0EAFFC5
:100BC000080EE926000EEA22EF50EF2A4B6FCCC048
:100BD000E9FFCDC0EAFF0A0EEB504B5D01E277D092
:100BE000CCC0E9FFCDC0EAFF0B0EE926000EEA22D9
:100BF000050E6CD000EBE6FFCCC0E9FFCDC0EAFFEC
:100C0000080EEB50E66ECCC04BF0CDC04CF0CCC023
:100C1000E6FFCDC0E6FFE7EC0DF044E9066E060402
:100C200039E1CCC0E9FFCDC0EAFFCCC04BF0CDC06C
:100C30004CF000014B2B000E4C234BC0E6FF4CC088
:100C4000E6FF1F0EE66E080EEB50FF0FE66E2EEC71
:100C500008F044E98A50100B01E0010E010BE81C7A
:100C6000E8B08A88E8A08A98CCC0E9FFCDC0EAFF46
:100C7000020EE926000EEA22EF50A2080CE0CCC0DA
:100C8000E9FFCDC0EAFF020EE926000EEA22EF508E
:100C9000B10801D00650CCC0E9FFCDC0EAFF080E74
:100CA000E926000EEA22EF6ACCC0E9FFCDC0EAFFD8
:100CB0000A0EE926000EEA22EF68CCC0E9FFCDC09B
:100CC000EAFF0B0EE926000EEA22010EEF6E46E95E
:100CD000E7CFD9FF1200D9CFE6FFE1CFD9FF81E9F5
:100CE0004BE89EAA31D0AE50016E026A036A080E2C
:100CF000D89003BE03D0025C000E035821E2CCC0A2
:100D00004BF0CDC04CF0000102504B25E96E035072
:100D10004C21EA6EEF50E66ED950040FE66EDACF42
:100D2000E6FFFE0EE3500224E96E41E9E5500320A0
:100D3000EA6EE552E750EF6E022A000E0322D7D783
:100D400001EBE6FF5DDE41E90001D4A70BD0AB98D3
:100D5000AB88000EE66EE66A1E0EE66EE66A2EECC4
:100D600008F044E94CE9E7CFD9FF1200D9CFE6FFFC
:100D7000E1CFD9FF85E902EBCCF003EBCDF000EB3E
:100D8000CEF001EBCFF0CCC0E9FFCDC0EAFF080EFA
:100D9000E926000EEA22EF6ACCC0E9FFCDC0EAFFE7
:100DA0000A0EE926000EEA22EF68CCC0E9FFCDC0AA
:100DB000EAFF0B0EE926000EEA22010EEF6E00EBB1
:100DC000E9FF01EBEAFF080EE926000EEA22EF6ACE
:100DD00000EBE9FF01EBEAFF090EE926000EEA222B
:100DE000EF6A00EBE9FF01EBEAFF0A0EE926000ECD
:100DF000EA22EF0400EBE9FF01EBEAFF0B0EE92624
:100E0000000EEA22010EEF6E41E9E7CFD9FF120092
:100E1000D9CFE6FFE1CFD9FF83E941E800EBE9FF55
:100E200001EBEAFF340EE926000EEA22EF6A00EB3E
:100E3000E9FF01EBEAFF350EE926000EEA22EF6A30
:100E4000036A040E035C0FE200EBE9FF01EBEAFF2B
:100E500003500D0DE950F324E96EEA50F420EA6ED8
:100E6000EF6A032AEED742E9E7CFD9FF1200D9CFC4
:100E7000E6FFE1CFD9FF87E945E803500A6E0B6A28
:100E800004EBE9FF05EBEAFF340EE926000EEA2247
:100E9000EF50076E04EBE9FF05EBEAFF07500D0D7D
:100EA0000001F350E924086EF450EA20096E08EBC3
:100EB000E9FF09EBEAFFEF5002E0FF0E48D008EB34
:100EC000E9FF09EBEAFFEE5203EBEFFF08EBE9FF66
:100ED00009EBEAFF020EE926000EEA2202EBEFFF21
:100EE0000AEBE6FF0BEBE6FF00EBE6FF01EBE6FFAC
:100EF00008EBE9FF09EBEAFF030EE926000EEA2200
:100F0000E9CF4BF0EACF4CF0E9CFE6FFEACFE6FFBE
:100F1000B0EC0FF046E904EBE9FF05EBEAFF340E15
:100F2000E926000EEA22EF28030BE66E04EBE9FF48
:100F300005EBEAFF340EE926000EEA22E552E750FF
:100F4000EF6E08EBE9FF09EBEAFF010EEF6E46E9F1
:100F5000E7CFD9FF1200D9CFE6FFE1CFD9FF88E96B
:100F600045E805EBE9FF06EBEAFF350EE926000E42
:100F7000EA22EF50086E05EBE9FF06EBEAFF0850A6
:100F80000D0D0001F350E924096EF450EA200A6EB9
:100F900009EBE9FF0AEBEAFFEF045BE109EBE9FF8C
:100FA0000AEBEAFFEE52EF50045C02E2FD0E52D073
:100FB00009EBE9FF0AEBEAFFEE52EF500B6E0C6A09
:100FC0000BEBE6FF0CEBE6FF09EBE9FF0AEBEAFFB0
:100FD000030EE926000EEA22E9CF4BF0EACF4CF0EF
:100FE000E9CFE6FFEACFE6FF00EBE6FF01EBE6FF25
:100FF000B0EC0FF046E905EBE9FF06EBEAFF350E32
:10100000E926000EEA22EF28030BE66E05EBE9FF66
:1010100006EBEAFF350EE926000EEA22E552E7501C
:10102000EF6E09EBE9FF0AEBEAFF020EE926000E7C
:10103000EA22EF50E66E02EBE9FF03EBEAFFE5522E
:10104000E750EF6E09EBE9FF0AEBEAFFEF6A0B509E
:1010500001D0FC0E46E9E7CFD9FF1200D9CFE6FF59
:10106000E1CFD9FF85E900EBE6FF01EBE6FF02EBFC
:10107000E6FF03EBE6FF000EE66E010EE66EF7DE1E
:1010800046E941E9E7CFD9FF1200D9CFE6FFE1CF2A
:10109000D9FF86E900EBE6FF01EBE6FF02EBE6FF96
:1010A00003EBE6FF04EBE6FF000EE66E010EE66ED4
:1010B00052DF47E941E9E7CFD9FF1200D9CFE6FF78
:1010C000E1CFD9FF85E900EBE6FF01EBE6FF02EB9C
:1010D000E6FF03EBE6FF960EE66E000EE66EC7DE59
:1010E00046E941E9E7CFD9FF1200D9CFE6FFE1CFCA
:1010F000D9FF86E900EBE6FF01EBE6FF02EBE6FF36
:1011000003EBE6FF04EBE6FF960EE66E000EE66EDE
:1011100022DF47E941E9E7CFD9FF1200D9CFE6FF47
:10112000E1CFD9FF85E900EBE6FF01EBE6FF02EB3B
:10113000E6FF03EBE6FF600EE66E000EE66E97DE5E
:1011400046E941E9E7CFD9FF1200D9CFE6FFE1CF69
:10115000D9FF86E900EBE6FF01EBE6FF02EBE6FFD5
:1011600003EBE6FF04EBE6FF600EE66E000EE66EB4
:10117000F2DE47E941E9E7CFD9FF1200D9CFE6FF18
:10118000E1CFD9FF85E900EBE6FF01EBE6FF02EBDB
:10119000E6FF03EBE6FF000EE66E000EE66E67DE8E
:1011A00046E941E9E7CFD9FF1200D9CFE6FFE1CF09
:1011B000D9FF86E900EBE6FF01EBE6FF02EBE6FF75
:1011C00003EBE6FF04EBE6FF000EE66E000EE66EB4
:1011D000C2DE47E941E9E7CFD9FF12000001366BD3
:1011E000000EE66E010EE66E13DE42E9960EE66E26
:1011F000000EE66E0DDE42E9600EE66E000EE66E53
:1012000007DE42E9000EE66E000EE66E01DE42E900
:101210001200D38E03001200D9CFE6FFE1CFD9FF31
:1012200083E900EBE9FF01EBEAFFE9CF4BF0EACFFE
:101230004CF000EBE9FF01EBEAFF350EE926000E6A
:10124000EA22EF500D0D00014B51F324E96E4C5191
:10125000F420EA6EEF5041E9E7CFD9FF1200000118
:10126000365101E11200B4EC0BF0F3CF4BF0F4CFA8
:101270004CF00001F350F41001E0120094EC0BF07C
:10128000F3CF4BF0F4CF4CF00001F350F41001E138
:101290001200960EE66E000EE66EBEDF42E9000911
:1012A00001E01200000EE66E010EE66EB5DF42E9C7
:1012B000000901E0120009EF09F0C0EC0BF0F3CFD8
:1012C0004BF0F4CF4CF0F350F41001E112000001A8
:1012D000010E366F960EE66E000EE66E9DDF42E959
:1012E000000908E1000EE66E010EE66E95DF42E9A8
:1012F000000903E00001366B12000A0EE66E7EEC78
:1013000010F041E9E7D7D9CFE6FFE1CFD9FF81E976
:101310007FE860E8FC0ED36E9B8CD950320FE66EEE
:10132000DACFE6FFD950260FE66EDACFE6FFB6EC4D
:1013300006F044E9D950090FE66EDACFE6FF03EC78
:1013400004F042E9D950550FE66EDACFE6FF13EC10
:101350000FF042E9EEEC08F00F0E926E030E936E62
:101360003F0E8A6E8A968A988A9A946A8B6E8B90C0
:101370008B928B94F50EE66EFFEC0FF041E99F9097
:101380009F9A9F989F8652EC0DF01E0EE66E35ECEC
:1013900004F041E99D869D884CEC04F0190EE66E40
:1013A000E66AEC0EE66ED2EC0EF043E98DEC0BF043
:1013B0005DEC09F0D950490FE66EDACFE6FFD9505F
:1013C000070FE66EDACFE6FF0A0EE66E75EC08F060
:1013D00045E9066E063403E3FC0E065C30D1075087
:1013E0002A0A01E190D06C0A32E0740A15E01A0A68
:1013F00005E0010A03E0230A01E021D1C9EB08F06E
:101400000850A20A01E01BD14BEBE6FF4AEBE6FFD6
:101410007FEC0FF042E913D1D950490FE66EDACFD5
:10142000E6FF06EB4BF000014C6B4BBF4C694BC029
:10143000E6FF4CC0E6FF0750E66EE66AD950570F4C
:10144000E66EDACFE6FF08EC0DF048E9F8D086EB5F
:101450005FF05F342CE25F50000829E20001D950B0
:10146000490F4F6FDACF50F05F04516F526B800B12
:1014700001E052694F515125E96E50515221EA6EF7
:10148000EF50E66ED950490F4B6FDACF4CF05FEB5F
:101490004DF04E6B4DBF4E694B514D25E96E4C5191
:1014A0004E21EA6EE552E750EF6E5F06D2D7062A6C
:1014B000496806EBE6FFD950490FE66EDACFE6FF42
:1014C00000EC0EF043E9E66E0001D950490F4B6F76
:1014D000DACF4CF006EB4DF04E6B4DBF4E694B51E1
:1014E0004D25E96E4C514E21EA6EE552E750EF6E04
:1014F000062AD950490FE66EDACFE6FF06EBE6FF83
:10150000C2EC04F09BD00850B10A48E0130A37E05F
:10151000030A01E08AD08B50010B010BE81CE8B0F4
:101520008B80E8A08B90050E066EC10E496E9FEC75
:101530000DF0F350026EF450036E77EC0DF0F350A3
:10154000046EF450056EFF0E02144B6E0001000E87
:1015500002144B6FFF0E03144C6F4B6F4C6B4B51CF
:101560004A6EFF0E04144D6E000E04144B6FFF0EF6
:1015700005144C6F4B6F4C6B4B514C6E56D08B50CF
:10158000020B01E0010E010BE81CE8B08B82E8A021
:101590008B92010E066EC20E496E47D08B50040B23
:1015A00001E0010E010BE81CE8B08B84E8A08B94ED
:1015B000050E066ED10E496E0001FC0E57144B6FDE
:1015C000030E58144C6FD8904C334B33D8904C3397
:1015D0004B334B514A6EFC0E59144B6F030E5A1489
:1015E0004C6FD8904C334B33D8904C334B334B51DA
:1015F0004B6EFC0E5B144B6F030E5C144C6FD8905B
:101600004C334B33D8904C334B334B514C6EFC0E18
:101610005D144B6F030E5E144C6FD8904C334B33FC
:10162000D8904C334B334B514D6ED950490FE66E29
:10163000DACFE6FF06EBE6FF01EC01F043E9D95013
:10164000490FE66EDACFE6FFD950070FE66EDACF24
:10165000E6FF0A0EE66E45EC08F045E9066E063434
:1016600003E3FC0E065CA4D60750320A01E1A0D6C3
:101670000E0A40E0220A21E0010A1FE0140A01E0FC
:1016800097D6010E066ED950080FE66EDACFE6FF48
:1016900006EB4BF000014C6B4BBF4C694BC0E6FFB7
:1016A0004CC0E6FF0750E66EE66AD950550FE66E6D
:1016B000DACFE6FF22EC0FF01BD0556A566AD950FC
:1016C000490FE66EDACFE6FF06EB4BF000014C6BFC
:1016D0004BBF4C694BC0E6FF4CC0E6FF0750E66EBF
:1016E000E66AD950470FE66EDACFE6FFDBEC0FF083
:1016F00048E95ED68B50010B010BE81CE8B08B80EB
:10170000E8A08B90D950490FE66EDACFE6FF06EBE2
:10171000E6FF01EC01F043E94BD6D08EF28EF28C5D
:101720009F8C9D8C9E9C1200F250800B800A01E0E1
:10173000010E00014B6F4C6B800B01E04C694BC0FC
:10174000F3FF4CC0F4FF1200F250400B400A01E0DE
:10175000010E00014B6F4C6B800B01E04C694BC0DC
:10176000F3FF4CC0F4FF1200F2BC04D0DDDFF350F5
:10177000F41002E0000E01D0010EF36EF46A1200C4
:10178000F3DFF3CF4BF0F4CF4CF00001F350F41043
:1017900006E1CADFF350F41002E1010E01D0000EA1
:1017A000F36EF46A1200DACFE4FFE2CFDAFFE9CF9A
:1017B000E4FFEACFE4FFD9CFE4FFDACFE4FF59C07A
:1017C000E4FF5AC0E4FF5BC0E4FF5CC0E4FFF6CF77
:1017D000E4FFF7CFE4FFF5CFE4FFF3CFE4FFF4CF6E
:1017E000E4FFFACFE4FF00EE4BF0080EE80403E359
:1017F000EECFE4FFFBD7E652F2A203D0F2926BECFD
:101800000DF0F0A003D0F0905FEC0DF09EA603D099
:101810009E96C7EC01F0F2A407D0F60ED76E3C0EF0
:10182000D66EF29484EC0EF09EAC03D09E9CC8EC75
:101830000EF02FEC09F0E55200EE52F0080EE8042D
:1018400003E3E5CFEDFFFBD7E5CFFAFFE5CFF4FFEC
:10185000E5CFF3FFE5CFF5FFE5CFF7FFE5CFF6FFE7
:10186000E5CF5CF0E5CF5BF0E5CF5AF0E5CF59F07E
:10187000E5CFDAFFE5CFD9FFE5CFEAFFE5CFE9FF16
:10188000E5CFDAFF1100D8CFE4FFE0CFE4FFE46E4C
:10189000DACFE4FFE2CFDAFFE9CFE4FFEACFE4FFFB
:1018A000D9CFE4FFDACFE4FF59C0E4FF5AC0E4FF28
:1018B0005BC0E4FF5CC0E4FFF6CFE4FFF7CFE4FFDA
:1018C000F5CFE4FFF3CFE4FFF4CFE4FFFACFE4FF7A
:1018D00000EE4BF0080EE80403E3EECFE4FFFBD785
:1018E000E6529EA003D09E90B8EC0EF09EAA03D0C4
:1018F0009E9A6BEC06F09EA803D09E9851EC04F0E3
:10190000E55200EE52F0080EE80403E3E5CFEDFFE8
:10191000FBD7E5CFFAFFE5CFF4FFE5CFF3FFE5CF47
:10192000F5FFE5CFF7FFE5CFF6FFE5CF5CF0E5CFBC
:101930005BF0E5CF5AF0E5CF59F0E5CFDAFFE5CF20
:10194000D9FFE5CFEAFFE5CFE9FFE5CFDAFFE550C4
:10195000E5CFE0FFE5CFD8FF1000D9CFE6FFE1CF1C
:10196000D9FF83E942E8036A046A040ED89004BEF2
:1019700003D0035C000E04581CE200EBE9FF01EB0E
:10198000EAFFE9CF4BF0EACF4CF003EB4DF004EB6C
:101990004EF00001D8904D374E37E9504D25E96E95
:1019A000EA504E21EA6EEE6AED6A032A000E042226
:1019B000DCD7040EE66E870EE66EA10EE66E4DECE9
:1019C0000FF043E99E9CF28C9D8C0001D56BD5C035
:1019D000E9FFEA6AE9BEEA68D00EE926000EEA22CB
:1019E000EFCFE6FF4FEC10F041E9320EE66EC5ECAA
:1019F00010F041E943E9E7CFD9FF12000AEC00F00B
:101A0000010EE66E7EEC10F041E9120007EF00F0E7
:101A1000D9CFE6FFE1CFD9FF89E942E8B9EC10F070
:101A2000F350096EF4500A6E06EBE9FF07EBEAFF8C
:101A3000E9CF4BF0EACF4CF0D5C04DF000014E6B32
:101A40004DBF4E69D8904D374E374B514D25E96EFD
:101A50004C514E21EA6E09EBEEFF0AEBEDFF00015F
:101A6000D52B040EE76ED51902E7E73402D0E75014
:101A7000D55D01E3D56BD5C0E9FFEA6AE9BEEA6846
:101A8000D00EE926000EEA22EFCFE6FF4FEC10F071
:101A900041E9010EE66E7EEC10F041E943E9E7CF43
:101AA000D9FF12000001536B546B556B566B0F0E30
:101AB000C16EF18CF18AF08CF288F086120080B24F
:101AC00005D000015507000E565B12000001552B92
:101AD000000E5623120080B005D00001532B000EDB
:101AE0005423120000015307000E545B120055C02E
:101AF00057F056C058F0000158350AE25751000817
:101B0000400E585505E2576B400E586F565F10D087
:101B1000D880585104E7000E575DC00E585906E2B0
:101B2000576BC00E586F400E562702D0556B566B40
:101B3000400E582757C0F3FF58C0F4FF120053C09F
:101B400057F054C058F0000158350AE257510008C8
:101B5000400E585505E2576B400E586F545F10D039
:101B6000D880585104E7000E575DC00E585906E260
:101B7000576BC00E586F400E542702D0536B546BF6
:101B8000400E582757C0F3FF58C0F4FF1200D9CFBA
:101B9000E6FFE1CFD9FF86E900EBE6FF02EBE6FFC7
:101BA00003EBE6FF04EBE6FF12D844E901080BE182
:101BB00003EBE6FF04EBE6FF01EBE6FF02EBE6FFDB
:101BC0002EEC08F044E941E9E7CFD9FF1200D9CF64
:101BD000E6FFE1CFD9FF85E941E801EBE6FF02EB43
:101BE000E6FF03EBE6FF0CD843E9056E0550005C09
:101BF00002E1010E01D0000E42E9E7CFD9FF120049
:101C0000D9CFE6FFE1CFD9FF84E94DE8046A0F6A36
:101C100000280F5C17E20F500124E96E000E02202D
:101C2000EA6EEF50E66E0001D950050F4B6F0F5072
:101C3000EA6A4B25E96EDA50EA22E552E750EF6E88
:101C40000F2AE6D7106A0050105C0AE210500124F7
:101C5000E96E000E0220EA6EEF50041A102AF3D744
:101C600004504EE9E7CFD9FF12001E0EF66E000EAB
:101C7000F76E000EF86E00010900F550466F09007E
:101C8000F550476F03E1466701D03DD00900F5509C
:101C9000416F0900F550426F0900F550436F09008C
:101CA0000900F550E96E0900F550EA6E09000900D7
:101CB0000900F550446F0900F550456F090009000F
:101CC000F6CF48F0F7CF49F0F8CF4AF041C0F6FF21
:101CD00042C0F7FF43C0F8FF0001445302E14553FF
:101CE00007E00900F550EE6E4407F8E24507F9D722
:101CF00048C0F6FF49C0F7FF4AC0F8FF0001460799
:101D0000000E475BBFD71200D9CFE6FFE1CFD9FF66
:101D100081E946E8000EE66EE66A37EC10F042E92B
:101D2000D950010FE66EDACFE6FFD950050FE66E07
:101D3000DACFE6FF020EE66ED5EC08F045E9036E59
:101D4000046AE8BE0468020E03180EE104500CE1B8
:101D5000D950010FE66EDACFE6FF0A0EE66E020EEC
:101D6000E66E5EEC08F044E947E9E7CFD9FF1200E0
:101D7000000EE66EE66A0B0EE66EE66A2EEC08F0E2
:101D800044E9000EE66EE66A1FEC10F042E912002C
:101D9000000EE66EE66A320EE66EE66A5EEC08F06B
:101DA00044E91200D9CFE6FFDACFE6FFE1CFD9FF51
:101DB000E2CFDAFF85E9AC6AAB6A02B0AC8802A276
:101DC00002D0AC8CAB8C02B4AC8E02A602D0AB8835
:101DD00001D0AB8A02B8AC849E9802BAAB8602AC42
:101DE00002D09D8A01D09D9A9E9A02AE02D09D8813
:101DF00001D09D9800EBAFFF000101EB4BF04C6B65
:101E00004BC0B0FFAC8AAB8E949C948EAC50100B40
:101E100004E0AC50800B01E1948C41E9E5CFDAFF9E
:101E2000E7CFD9FF1200D9CFE6FFE1CFD9FF83E991
:101E300000EBE9FF01EBEAFFEE6AED6A41E9E7CF6B
:101E4000D9FF1200D9CFE6FFE1CFD9FF89E906EB30
:101E5000E9FF07EBEAFFEE6AED6A00EBE9FF01EB51
:101E6000EAFFEF50A20A08E0030A06E000EBE9FFF0
:101E700001EBEAFFA10EEF6E8A50100B01E0010E9C
:101E8000010BE81CE8B08A88E8A08A98000EF36E7F
:101E9000F46A41E9E7CFD9FF1200D9CFE6FFDACFE4
:101EA000E6FFE1CFD9FFE2CFDAFF85E9C26AC06A77
:101EB00001407F0B3C0BC26E0138F00B300B000170
:101EC0004B6F0F0E00144B11C16E0250040DF350F6
:101ED000380B4C6F02380F0B070B4B6F800E021440
:101EE0004B114C11C06E01AE03D09E9C9D8CF28CA8
:101EF000C28041E9E5CFDAFFE7CFD9FF1200D9CFA1
:101F0000E6FFE1CFD9FF83E94AE8013402E201505C
:101F10007F0802E3015002E1400E016E003402E24C
:101F200000507F0802E3005002E1400E006E81EB9A
:101F300003F000EB4BF000014C6B4BBF4C69800E83
:101F40004B25046ED950030FE66EDACFE6FF020E82
:101F5000E66EC2EC04F043E94BE9E7CFD9FF12008B
:101F6000D9CFE6FFDACFE6FFFA0EE3CFD9FFFB0EBB
:101F7000E3CFDAFFFC0EE3CFE9FFFD0EE3CFEAFF8C
:101F8000E9CFF3FFEACFF4FFF80EE35003E1F90ED7
:101F9000E35008E0F80EE30602E2F90EE306DECFB6
:101FA000EEFFF2D7FF0EE3CFDAFFE552FF0EE3CFED
:101FB000D9FFE5521200D9CFE6FFE1CFD9FF89E979
:101FC00041E81E0E041802E1055015E01F0E04182A
:101FD00012E1055010E100500224E96E0150032087
:101FE000EA6EEF6A00EBE6FF01EBE6FF02EBE6FFCD
:101FF00001EC01F043E942E9E7CFD9FF1200D9CF64
:10200000E6FFDACFE6FFE1CFD9FFE2CFDAFF83E9DF
:102010007E0E0014CD6E00AC02D0CD8E01D0CD9ED0
:10202000CF6ACE6A9E9000AE02D09D8001D09D9076
:10203000CD8041E9E5CFDAFFE7CFD9FF1200D9CF54
:10204000E6FFDACFE6FFE1CFD9FFE2CFDAFF84E99E
:1020500042E880EB04F081EB05F005EBCFFF04EBE9
:10206000CEFF43E9E5CFDAFFE7CFD9FF1200D9CFA2
:10207000E6FFDACFE6FFE1CFD9FFE2CFDAFF84E96E
:1020800042E880EB04F081EB05F005EBD7FF04EBB1
:10209000D6FF43E9E5CFDAFFE7CFD9FF1200D9CF6A
:1020A000E6FFDACFE6FFE1CFD9FFE2CFDAFF83E93F
:1020B000C30EC21400014B6F00407F0B3C0B4B1151
:1020C000C26E41E9E5CFDAFFE7CFD9FF1200D9CFE1
:1020D000E6FFDACFE6FFE1CFD9FFE2CFDAFF83E90F
:1020E000ACAC04D0AC900001D4B3AC8000EBADFF3D
:1020F00041E9E5CFDAFFE7CFD9FF1200FF0EE35049
:1021000000015F6F480E01D04C0EE76EE72EFED740
:10211000E76AE72EFED75F2FF7D71200000EF36EA7
:1021200000EE00F00D0E01D81200EA6002D0EE6A57
:10213000FCD7F350E9601200EE6AFCD7D9CFE6FF76
:10214000E1CFD9FF89E942E880EB09F081EB0AF0A1
:1021500043E9E7CFD9FF12001CEE00F02CEE00F0AF
:10216000F86A35EC0EF003EC00F083EC09F0FBD7D5
:102170001200C4CF4DF04DC04EF000014D6BC35066
:102180004D11F36E4EC0F4FF1200FF0EE350E84E07
:102190001200000000D000D000D0E82EFAD71200C4
:0421A000878FC7D787
:020000040030CA
:0300010008191EBD
:0200050080C0B9
:00000001FF
