:020000040000FA
:06000000C3EF0CF012003A
:020006000000F8
:0600080051EF08F01200A8
:02000E00C250DE
:08001000020B01E0010E1200D9
:06001800A6EF08F0120043
:02001E00D9CF38
:10002000E6FFE552E7CFD9FF1200D9CFE6FF000E79
:10003000E552E7CFD9FF1200D9CFE6FF000EE55217
:10004000E7CFD9FF1200D9CFE6FFE1CFD9FFD9C062
:10005000E9FFDAC0EAFF190EE926000EEA22EF6A8C
:10006000D9C0E9FFDAC0EAFF190EEB50106EFE0EA0
:10007000DB50105C37E2D9C0E9FFDAC0EAFF190EA5
:10008000EB50E76EFC0EDBCFE9FFFD0EDBCFEAFFA6
:10009000E750E926000EEA22EF50E66ED9C0E9FFEC
:1000A000DAC0EAFF0F0EE926000EEA22E9CF10F0CF
:1000B000EACF11F0D9C0E9FFDAC0EAFF190EEB5020
:1000C0001024E96E000E1120EA6EE552E750EF6E43
:1000D000D9C0E9FFDAC0EAFF190EE926000EEA22CC
:1000E000EF2ABED7D9C0E9FFDAC0EAFF190EE92628
:1000F000000EEA22FE0EDBCFEFFFD9C0E9FFDAC027
:10010000EAFF1A0EE926000EEA22010EEF6ED9C0B0
:10011000E9FFDAC0EAFF0F0EEB50C96EC688E55260
:10012000E7CFD9FF1200D9CFE6FFE1CFD9FFD9C081
:10013000E9FFDAC0EAFF0B0EE926000EEA22010E03
:10014000EF6ED9C0E9FFDAC0EAFF0A0EE926000E19
:10015000EA22EF6AFE0EDB5035E0C7AA1DD0D9C0F7
:10016000E9FFDAC0EAFF0C0EE926000EEA22050ECE
:10017000EF6ED9C0E9FFDAC0EAFF0E0EE926000EE5
:10018000EA22EF2AD9C0E9FFDAC0EAFF0D0EE9261C
:10019000000EEA22050E1FD0C7A40AD0D9C0E9FF7D
:1001A000DAC0EAFF0C0EE926000EEA22080E13D090
:1001B000D9C0E9FFDAC0EAFF0C0EE926000EEA22F8
:1001C000070E09D0D9C0E9FFDAC0EAFF0C0EE92614
:1001D000000EEA22060EEF6EE552E7CFD9FF1200BD
:1001E000D9CFE6FFE1CFD9FF090EE126010EDB6A88
:1001F000020EDB6A030EDB6A040EDB6A050EDB6AA5
:10020000C6AC23D0C69CD9C0E9FFDAC0EAFF0C0E09
:10021000E926000EEA22050EEF6E010EF36E050EC2
:10022000F3CFDBFFD9C0E9FFDAC0EAFF0E0EE92603
:10023000000EEA22EF2AD9C0E9FFDAC0EAFF0D0E6C
:10024000E926000EEA22040EEF6EC7A005D0C950C1
:10025000DF6EDE52010EDD6E050EDB5001E072D165
:10026000D9C0E9FFDAC0EAFF0C0EEB50070A01E142
:10027000BAD00F0A01E182D00E0A18E0030A01E0A9
:1002800061D1C7A65FD1010EDBCFE6FF4CDFE5529F
:10029000D9C0E9FFDAC0EAFF0C0EEB50080801E014
:1002A00051D1010EDB6AF36E040E9AD0C7A823D099
:1002B000D9C0E9FFDAC0EAFF0B0EE926000EEA22F8
:1002C000EF2A010EDB5001E133D1C7AAD5D0D9C046
:1002D000E9FFDAC0EAFF0E0EE926000EEA22EF2A55
:1002E000D9C0E9FFDAC0EAFF0D0EE926000EEA22C6
:1002F000060EEF6E1DD1010EDB5001E123D1D9C0F6
:10030000E9FFDAC0EAFF0B0EE926000EEA22EF2A27
:10031000C7BA17D0C7B40AD0D9C0E9FFDAC0EAFF1C
:100320000C0EE926000EEA22070E0BD1D9C0E9FF18
:10033000DAC0EAFF0C0EE926000EEA22080EEF6E84
:10034000DCD0D9C0E9FFDAC0EAFF0E0EE926000EC4
:10035000EA22EF2AD9C0E9FFDAC0EAFF0C0EE9264B
:10036000000EEA22050EEF6ED9C0E9FFDAC0EAFFFF
:100370000D0EE926000EEA22060EE3D0D9C0E9FFF1
:10038000DAC0EAFF1A0EEB50106E190EEB50105C3B
:1003900001E3CED0D9C0E9FFDAC0EAFF0F0EE926AB
:1003A000000EEA22E9CF10F0EACF11F0D9C0E9FF40
:1003B000DAC0EAFF1A0EEB500F011024E96E000EAE
:1003C0001120EA6EEF50C96ED9C0E9FFDAC0EAFF2A
:1003D0001A0EE926000EEA22EF2A010EF36E020E33
:1003E000F3CFDBFFAFD0C7A84DD0D9C0E9FFDAC04B
:1003F000EAFF0B0EE926000EEA22EF2A010EDB507F
:100400003BE0C7AA1CD0D9C0E9FFDAC0EAFFD9C0D7
:1004100010F0DAC011F00A0EEB500F011024E96E53
:10042000000E1120EA6EDFCFEFFFD9C0E9FFDAC07E
:10043000EAFF0A0EE926000EEA22EF2A1DD0D9C0F3
:10044000E9FFDAC0EAFF0E0EE926000EEA22EF2AE3
:10045000D9C0E9FFDAC0EAFF0D0EE926000EEA2254
:10046000060EEF6ED9C0E9FFDAC0EAFF0C0EE926EE
:10047000000EEA22050E5BD0010EF36E030EF3CFE1
:10048000DBFF56D0010EDB505DE0D9C0E9FFDAC0DA
:10049000EAFF0B0EE926000EEA22EF2AC7AA1CD0BB
:1004A000D9C0E9FFDAC0EAFFD9C010F0DAC011F014
:1004B0000A0EEB500F011024E96E000E1120EA6EB7
:1004C000DFCFEFFFD9C0E9FFDAC0EAFF0A0EE92665
:1004D000000EEA22EF2A36D0C7A417D0D9C0E9FF10
:1004E000DAC0EAFF0C0EE926000EEA22080EEF6ED3
:1004F000010EF36E030EF3CFDBFF010EF36E040E5D
:10050000F3CFDBFF010EDB6A1DD0D9C0E9FFDAC0F3
:10051000EAFF0E0EE926000EEA22EF2AD9C0E9FF13
:10052000DAC0EAFF0D0EE926000EEA22060EEF6E93
:10053000D9C0E9FFDAC0EAFF0C0EE926000EEA2274
:10054000050EEF6E010EDB5003E1020EDB5002E000
:10055000C6A8C688D9C0E9FFDAC0EAFF0A0EEB5088
:10056000080820E2030EDB501DE1D9C0E9FFDAC024
:10057000EAFF0C0EE926000EEA22050EEF6ED9C046
:10058000E9FFDAC0EAFF0E0EE926000EEA22EF2AA2
:10059000D9C0E9FFDAC0EAFF0D0EE926000EEA2213
:1005A000070EEF6E030EDB5034E0D9C0E9FFDAC06E
:1005B000EAFF0B0EEB50E66ED9C010F0DAC011F076
:1005C0000A0EEB500F011024E96E000E1120EA6EA6
:1005D000E552E750EF6ED9C0E9FFDAC0EAFFD9C0B3
:1005E00010F0DAC011F0D9C0E6FFDAC0E6FF280E3D
:1005F000E66E0A0EEB50010FE66E88EC05F0E55250
:10060000E552E552E552D9C0E9FFDAC0EAFF0A0E29
:1006100035D0D9C0E9FFDAC0EAFF0E0EEB50106EFC
:10062000010E105C2FE3D9C0E9FFDAC0EAFF0E0E1D
:10063000EB50E76E060EE7CFDBFF0D0EEB50E76EDB
:10064000070EE7CFDBFF0B0EEB50E76E080EE7CF90
:10065000DBFFD950060FE66E000EDA20E66E290E9B
:10066000E66E030EE66E88EC05F0E552E552E552C3
:10067000E552D9C0E9FFDAC0EAFF0E0EE926000E06
:10068000EA22EF6A040EDB5017E0D9C0E9FFDAC0B6
:10069000EAFFD9C010F0DAC011F0D9C0E6FFDAC025
:1006A000E6FF2A0EE66EE66A88EC05F0E552E552B2
:1006B000E552E552040EDB6A090EE15C02E2E16AF2
:1006C000E552E16EE552E7CFD9FF1200D9CFE6FF40
:1006D000E1CFD9FFFD0EDBCFD9F0FE0EDBCFDAF094
:1006E000D9C0E9FFDAC0EAFF0A0EE926000EEA22C5
:1006F000EF6AD9C0E9FFDAC0EAFF0B0EE926000E67
:10070000EA22EF6AD9C0E9FFDAC0EAFF0C0EE92657
:10071000000EEA22050EEF6ED9C0E9FFDAC0EAFF4B
:100720000E0EE926000EEA22EF6AE552E7CFD9FF66
:100730001200D9CFE6FFE1CFD9FF94869488FE0E50
:10074000DB50C86EC76AC66AC56A0E0EC612C78E6F
:1007500094869488C580C68AE552E7CFD9FF1200F7
:10076000D9CFE6FFE1CFD9FFE652FD0EDBCFE9FF9F
:10077000FE0EDBCFEAFF340EE926000EEA22EF6A16
:10078000FD0EDBCFE9FFFE0EDBCFEAFF350EE926DB
:10079000000EEA22EF6ADF6A040EDF5C11E2FD0E52
:1007A000DBCFE9FFFE0EDBCFEAFFDF500D0DE95096
:1007B000F324E96EEA50F420EA6EEF6ADF2AECD700
:1007C000E552E552E7CFD9FF1200D9CFE6FFE1CFDE
:1007D000D9FF050EE126FC0EDB50E66ED950030F63
:1007E000E96EDACFEAFFE552E750EE6EED6AFD0EF4
:1007F000DBCFE9FFFE0EDBCFEAFF340EE926000E69
:10080000EA22EFCFDFFFFD0EDBCFE9FFFE0EDBCFED
:10081000EAFFE9CF12F0EACF13F0DF500D0DE950F7
:10082000F324106EEA50F420116E010E10C0DBFFAD
:10083000020E11C0DBFF010EDBCFE9FF020EDBCFA2
:10084000EAFFEF5002E0FF0E5CD0010EDBCFE9FFC4
:10085000020EDBCFEAFFEE52FC0EDBCFEFFF010E04
:10086000DBCFE9FF020EDBCFEAFFE926000EEA222A
:10087000FB0EDBCFEFFF030EDBCFE6FF040EDBCF7B
:10088000E6FFF90EDBCFE6FFFA0EDBCFE6FF010E47
:10089000DBCFE9FF020EDBCFEAFF030EE926000EF5
:1008A000EA22E9CF10F0EACF11F0E9CFE6FFEACF74
:1008B000E6FF83EC0BF0126E060EE15E1250FD0EA9
:1008C000DBCFE9FFFE0EDBCFEAFF340EE926000E98
:1008D000EA22EF28030BE66EFD0EDBCFE9FFFE0EEA
:1008E000DBCFEAFF340EE926000EEA22E552E7509C
:1008F000EF6E010EDBCFE9FF020EDBCFEAFF010E48
:10090000EF6E106E050EE15C02E2E16AE552E16E07
:100910001050E552E7CFD9FF1200D9CFE6FFE1CF63
:10092000D9FF050EE126FD0EDBCFE9FFFE0EDBCF82
:10093000EAFF350EE926000EEA22EFCFDFFFFD0EBB
:10094000DBCFE9FFFE0EDBCFEAFFE9CF12F0EACF03
:1009500013F0DF500D0DE950F324106EEA50F4202F
:10096000116E010E10C0DBFF020E11C0DBFF010E85
:10097000DBCFE9FF020EDBCFEAFFEF0401E07ED020
:10098000010EDBCFE9FF020EDBCFEAFFEE52EFCF25
:1009900010F0FC0EDB50D880105402E2FD0E6FD038
:1009A000010EDBCFE9FF020EDBCFEAFFEE52EF5084
:1009B000E66ED950030FE96EDACFEAFFE552E75051
:1009C000EE6EED6A030EDBCFE6FF040EDBCFE6FF33
:1009D000010EDBCFE9FF020EDBCFEAFF030EE926B3
:1009E000000EEA22E9CF10F0EACF11F0E9CFE6FFDE
:1009F000EACFE6FFF80EDBCFE6FFF90EDBCFE6FF2E
:100A000083EC0BF0126E060EE15E1250FD0EDBCF92
:100A1000E9FFFE0EDBCFEAFF350EE926000EEA22E3
:100A2000EF28030BE66EFD0EDBCFE9FFFE0EDBCFFA
:100A3000EAFF350EE926000EEA22E552E750EF6E96
:100A4000010EDBCFE9FF020EDBCFEAFFE926000E45
:100A5000EA22EF50E66EFA0EDBCFE9FFFB0EDBCFAA
:100A6000EAFFE552E750EF6E010EDBCFE9FF020E21
:100A7000DBCFEAFFEF6A030EDB5001D0FC0E106EF5
:100A8000050EE15C02E2E16AE552E16E1050E552CA
:100A9000E7CFD9FF1200D9CFE6FFE1CFD9FFFB0E98
:100AA000DBCFE6FFFC0EDBCFE6FFFD0EDBCFE6FF84
:100AB000FE0EDBCFE6FF360EE66E010EE66E85DE3D
:100AC000106E060EE15E1050E552E7CFD9FF12001E
:100AD000D9CFE6FFE1CFD9FFFA0EDBCFE6FFFB0E61
:100AE000DBCFE6FFFC0EDBCFE6FFFD0EDBCFE6FF44
:100AF000FE0EDBCFE6FF360EE66E010EE66E0DDF74
:100B0000106E070EE15E1050E552E7CFD9FF1200DC
:100B1000D9CFE6FFE1CFD9FFFB0EDBCFE6FFFC0E1E
:100B2000DBCFE6FFFD0EDBCFE6FFFE0EDBCFE6FF01
:100B3000000EE66E010EE66E48DE106E060EE15EF9
:100B40001050E552E7CFD9FF1200D9CFE6FFE1CF31
:100B5000D9FFFA0EDBCFE6FFFB0EDBCFE6FFFC0E84
:100B6000DBCFE6FFFD0EDBCFE6FFFE0EDBCFE6FFC1
:100B7000000EE66E010EE66ED0DE106E070EE15E30
:100B80001050E552E7CFD9FF1200D9CFE6FFE1CFF1
:100B9000D9FFFB0EDBCFE6FFFC0EDBCFE6FFFD0E41
:100BA000DBCFE6FFFE0EDBCFE6FF970EE66E000E14
:100BB000E66E0BDE106E060EE15E1050E552E7CFDA
:100BC000D9FF1200D9CFE6FFE1CFD9FFFA0EDBCF74
:100BD000E6FFFB0EDBCFE6FFFC0EDBCFE6FFFD0EF4
:100BE000DBCFE6FFFE0EDBCFE6FF970EE66E000ED4
:100BF000E66E93DE106E070EE15E1050E552E7CF11
:100C0000D9FF1200D9CFE6FFE1CFD9FFFB0EDBCF32
:100C1000E6FFFC0EDBCFE6FFFD0EDBCFE6FFFE0EB0
:100C2000DBCFE6FF600EE66E000EE66ECEDD106EE8
:100C3000060EE15E1050E552E7CFD9FF1200D9CF82
:100C4000E6FFE1CFD9FFFA0EDBCFE6FFFB0EDBCFED
:100C5000E6FFFC0EDBCFE6FFFD0EDBCFE6FFFE0E70
:100C6000DBCFE6FF600EE66E000EE66E56DE106E1F
:100C7000070EE15E1050E552E7CFD9FF12000001E8
:100C8000966B360EE66E010EE66E6ADDE552E552B3
:100C9000000EE66E010EE66E63DDE552E552970E3C
:100CA000E66E000EE66E5CDDE552E552600EE66E25
:100CB000000EE66E55DDE552E5521200D38E0300BC
:100CC0001200D9CFE6FFE1CFD9FFFD0EDBCFE9FF60
:100CD000FE0EDBCFEAFFE9CF10F0EACF11F0FD0EF8
:100CE000DBCFE9FFFE0EDBCFEAFF350EE926000E73
:100CF000EA22EF500D0D1050F324E96E1150F4204C
:100D0000EA6EEF50E552E7CFD9FF1200000196518D
:100D100001E1120033EC08F0F3CF10F0F4CF11F042
:100D2000F350F41001E0120017EC08F0F3CF10F0CC
:100D3000F4CF11F0F350F41001E11200000EE66E52
:100D4000010EE66EBEDFE552E552000901E0120039
:100D5000360EE66E010EE66EB4DFE552E55200098E
:100D600001E012005EEF06F03FEC08F0F3CF10F068
:100D7000F4CF11F0F350F41001E112008A86000163
:100D8000010E966F000EE66E010EE66E9ADFE552DA
:100D9000E552000909E1360EE66E010EE66E91DFBE
:100DA000E552E552000904E00001966B8A961200B4
:0E0DB0000A0EE66EA3EC0CF0E5528A76E3D74D
:020DBE00D9CF8B
:100DC000E6FFE1CFD9FF370EE126FC0ED36E9B8CF8
:100DD000D950040FE66E000EDA20E66ED4EC09F06E
:100DE000E552E552D950090FE66E000EDA20E66EA4
:100DF00066EC03F0E552E552D950330FE66E000E73
:100E0000DA20E66EEBEC09F0E552E5523FEC06F035
:100E1000936A8A6A960EE66E45EC0CF0E552F50E82
:100E2000E66EAEEC0BF0E5529F909F9A9F869E0E69
:100E3000E66E99EC03F0E5529D86190EE66EE66AC1
:100E40006C0EE66EDAEC0AF0E552E552E55213EC70
:100E500008F0B4EC06F0D950250FE66E000EDA204B
:100E6000E66ED950020FE66E000EDA20E66E0A0E2C
:100E7000E66EA5EC05F0106E050EE15E1050E76E13
:100E8000010EE7CFDBFFDBCF10F0103404E3010EDF
:100E9000DB50FC0861D0020EDB502A0A2EE0020A69
:100EA00025E0010A23E0230A57E1D950250FE66E19
:100EB000000EDA20E66E010EDBCF10F0116A10BED4
:100EC000116810C0E6FF11C0E6FF020EDBCFE6FF9F
:100ED000E66AD950350FE66E000EDA20E66E8EEC2B
:100EE0000CF0126E080EE15E125036D0250EDB506B
:100EF000E76E030EE7CFDBFF2FD0030EDB50A90A0E
:100F000015E0010A0EE0020A19E1DE52020EDD6E62
:100F1000440EF36E250EF3CFDBFFAA0EF36E260E02
:100F20000BD0DE52010EDD6E3A0E04D0DE52010E01
:100F3000DD6EA30EF36E250EF3CFDBFFD950250F28
:100F4000E66E000EDA20E66E010EDBCFE6FF23EC44
:100F500000F0E552E552E552D950250FE66E000E3D
:100F6000DA20E66ED950020FE66E000EDA20E66E49
:100F70000A0EE66E68EC05F0106E050EE15E10508C
:100F8000E76E010EE7CFDBFFDBCF10F0103404E398
:100F9000010EDB50FC085DD7020EDB501E0A22E07A
:100FA000010A20E0140A01E054D7D950250FE66E5B
:100FB000000EDA20E66E010EDBCF10F0116A10BED3
:100FC000116810C0E6FF11C0E6FF020EDBCFE6FF9E
:100FD000E66AD950330FE66E000EDA20E66EFBECBF
:100FE00009F01CD0D950250FE66E000EDA20E66E0F
:100FF000010EDBCF10F0116A10BE116810C0E6FFC1
:1010000011C0E6FF020EDBCFE6FFE66AD950310FD2
:10101000E66E000EDA20E66E56EC0BF0126E080E4D
:06102000E15E125016D73C
:0A102600D08EF28EF28C1200F25010
:10103000800B800A01E0010E106E116A10BE11686B
:1010400010C0F3FF11C0F4FF1200F250400B400A31
:1010500001E0010E106E116A10BE116810C0F3FF9E
:1010600011C0F4FF1200F2BC04D0E1DFF350F41021
:1010700002E0F36A02D0010EF36EF46A1200F3DFAD
:10108000F3CF10F0F4CF11F0F350F41007E1CFDFFD
:10109000F350F41003E1010EF36E01D0F36AF46A29
:1010A0001200DACFE4FFE2CFDAFFE9CFE4FFEACFC4
:1010B000E4FFF6CFE4FFF7CFE4FFF5CFE4FFF3CF93
:1010C000E4FFF4CFE4FFFACFE4FF00EE00F0100EEF
:1010D000E80403E3EECFE4FFFBD700EE10F0040ECC
:1010E000E80403E3EECFE4FFFBD7E6529EA603D06D
:1010F0009E96F0EC00F0F2A403D0F29403EC09F019
:1011000086EC06F0E55200EE13F0040EE80403E36B
:10111000E5CFEDFFFBD700EE0FF0100EE80403E380
:10112000E5CFEDFFFBD7E5CFFAFFE5CFF4FFE5CF45
:10113000F3FFE5CFF5FFE5CFF7FFE5CFF6FFE5CF0E
:10114000EAFFE5CFE9FFE5CFDAFF1100D8CFE4FFF2
:10115000E0CFE4FFE46EDACFE4FFE2CFDAFFE9CFDD
:10116000E4FFEACFE4FFF6CFE4FFF7CFE4FFF5CFEB
:10117000E4FFF3CFE4FFF4CFE4FFFACFE4FF00EEA7
:1011800000F0100EE80403E3EECFE4FFFBD700EE1F
:1011900010F0040EE80403E3EECFE4FFFBD7E652C1
:1011A0009EA003D09E904FEC09F09EAA03D09E9A79
:1011B00079EC09F0E55200EE13F0040EE80403E3C5
:1011C000E5CFEDFFFBD700EE0FF0100EE80403E3D0
:1011D000E5CFEDFFFBD7E5CFFAFFE5CFF4FFE5CF95
:1011E000F3FFE5CFF5FFE5CFF7FFE5CFF6FFE5CF5E
:1011F000EAFFE5CFE9FFE5CFDAFFE550E5CFE0FF15
:06120000E5CFD8FF10004D
:0A120600D9CFE6FFE1CFD9FF060EB5
:10121000E1268A70000EE66EE66A29EC0CF0E552D3
:10122000E552D9CFE6FFDACFE6FFD950040FE66EDC
:10123000000EDA20E66E020EE66E1FEC06F0126E6D
:10124000050EE15E1250106E116A10BE1168020E9A
:1012500010C0DBFF030E11C0DBFFD950020FE96E97
:10126000DACFEAFF020EEE1810E1ED500EE1D9CF11
:10127000E6FFDACFE6FF0A0EE66E020EE66E88ECB7
:1012800005F0E552E552E552E552060EE15C02E258
:10129000E16AE552E16EE552E7CFD9FF1200D9CFFE
:1012A000E6FFE1CFD9FF020EE1268A72EEEC0BF0E9
:1012B000F3CFDEFFF4CFDDFF000EE66EE66A0B0E25
:1012C000E66EE66A4BEC05F0E552E552E552E55272
:1012D000000EE66EE66A0DEC0CF0E552E552020EE9
:1012E000E15C02E2E16AE552E16EE552E7CFD9FF47
:0212F0001200EA
:0E12F2009EAA47D0CFEC0BF0E66ED7C0E9FF06
:10130000D8C0EAFFD7C010F0D8C011F0040EEB50DF
:101310000F011024E96E000E1120EA6EE552E7502D
:10132000EF6ED7C0E9FFD8C0EAFF040EE926000E31
:10133000EA22EF2AD7C0E9FFD8C0EAFF040EEB503B
:10134000040820E1D7C0E9FFD8C0EAFFD7C010F0F9
:10135000D8C011F0D7C0E6FFD8C0E6FF1F0EE66E7A
:10136000040EEB50E66E4BEC05F0E552E552E5520B
:10137000E552D7C0E9FFD8C0EAFF040EE926000E07
:10138000EA22EF6A0001DBA70ED0AB98AB88000E13
:10139000E66EE66A1E0EE66EE66A4BEC05F0E55276
:1013A000E552E552E5521200D9CFE6FFE1CFD9FF71
:1013B000FD0EDBCFD7F0FE0EDBCFD8F0D7C0E9FFB4
:1013C000D8C0EAFF040EE926000EEA22EF6AE552D1
:0613D000E7CFD9FF120077
:0A13D600D9CFE6FFE1CFD9FFFD0EED
:1013E000DBCFE9FFFE0EDBCFEAFFEE6AED6AE552E6
:1013F000E7CFD9FF1200D9CFE6FFE1CFD9FFE65200
:10140000FD0EDBCFE9FFFE0EDBCFEAFFEE2A000E7A
:10141000EF22FD0EDBCFE9FFFE0EDBCFEAFFEECFC2
:1014200010F0EFCF11F00A0E0B6E0C6A10C006F030
:1014300011C007F078EC0CF003C011F0090E02188F
:101440001EE111501CE1FD0EDBCFE9FFFE0EDBCFEC
:10145000EAFFE9CF10F0EACF11F0E9CFE6FFEACFDB
:10146000E6FF140EE66E020EE66E02EC06F0E552A2
:10147000E552E552E552DF6EDFCF10F01034E55251
:08148000E552E7CFD9FF12008D
:08148800060EF66E000EF76E71
:10149000000EF86E00010900F550D26F0900F550FA
:1014A000D36F03E1D26701D03DD00900F550CD6F75
:1014B0000900F550CE6F0900F550CF6F0900090003
:1014C000F550E96E0900F550EA6E090009000900BF
:1014D000F550D06F0900F550D16F09000900F6CF23
:1014E000D4F0F7CFD5F0F8CFD6F0CDC0F6FFCEC010
:1014F000F7FFCFC0F8FF0001D05302E1D15307E05E
:101500000900F550EE6ED007F8E2D107F9D7D4C044
:10151000F6FFD5C0F7FFD6C0F8FF0001D207000ED6
:06152000D35BBFD71200EF
:0A1526000B0EE66E070EE66E910E46
:10153000E66E1FEC0BF0E552E552E552870EE66EC3
:1015400061EC0CF0E552320EE66ED1EC0CF0E55297
:101550001200D9CFE6FFE1CFD9FF020EE126E8EC79
:101560000CF007EC00F00009FCE1DCEC0CF0F3CF30
:10157000DEFFF4CFDDFFDECFE6FFDDCFE6FF280E96
:10158000E66E0A0EE66E4BEC05F0E552E552E552CA
:10159000E552010EE66EA3EC0CF0E552020EE15CA2
:1015A00002E2E16AE552E16EE552E7CFD9FF1200AF
:0415B000E5EF0CF067
:0C15B400D9CFE6FFDACFE6FFE1CFD9FF88
:1015C000E2CFDAFFAC6AAB6AFD0EDBB0AC88DBA21F
:1015D00002D0AC8CAB8CDBB4AC8EDBA602D0AB887B
:1015E00001D0AB8ADBB8AC849E98DBBAAB86DBACAF
:1015F00002D09D8A01D09D9A9E9ADBAE02D09D8832
:1016000001D09D98FB0EDB50AF6EFB0EFC0EDBCFC6
:1016100011F011C010F0116A1050B06EAC8AAB8E90
:10162000949C948EAC50100B04E0AC50800B01E104
:0E163000948CE552E5CFDAFFE7CFD9FF120028
:02163E00D9CF02
:10164000E6FFDACFE6FFE1CFD9FFE2CFDAFFC26AE9
:10165000C06AFC0EDB407F0B3C0BC26EFC0EDB381D
:10166000F00B300B106EFB0EDB500F0B1010C16E29
:10167000FD0EDB50040DF350380B116EFD0EDB3800
:101680000F0B070B106EFD0EDB50800B10101110AE
:10169000C06EFC0EDBAE03D09E9C9D8CF28CC28093
:0C16A000E552E5CFDAFFE7CFD9FF1200DA
:0416AC00D9CFE6FFAD
:1016B000E1CFD9FFE150FB0FE96EFF0EDA20EA6EB1
:1016C0001E0EEE1802E1ED501AE0D950FB0FE96E44
:1016D000FF0EDA20EA6E1F0EEE1811E1ED500FE159
:1016E000F90EDBCF10F0FA0EDBCF11F0F70EDB5066
:1016F0001024E96EF80EDB501120EA6EEF6AE55215
:06170000E7CFD9FF120043
:0A170600D9CFE6FFDACFE6FFFA0EB6
:10171000E3CFD9FFFB0EE3CFDAFFFC0EE3CFE9FF07
:10172000FD0EE3CFEAFFE9CFF3FFEACFF4FFF80EB7
:10173000E35003E1F90EE35008E0F80EE30602E29D
:10174000F90EE306DECFEEFFF2D7FF0EE3CFDAFFAE
:0C175000E552FF0EE3CFD9FFE552120076
:04175C00D9CFE6FFFC
:10176000DACFE6FFE1CFD9FFE2CFDAFFFD0EDB50A3
:101770007E0BCD6EFD0EDBAC02D0CD8E01D0CD9EAA
:10178000CF6ACE6A9E90DBAE02D09D8001D09D9044
:0E179000CD80E552E5CFDAFFE7CFD9FF12009A
:02179E00D9CFA1
:1017A000E6FFDACFE6FFE1CFD9FFE2CFDAFFE6527C
:1017B000F20E0001DB17ABAC03D0DB91ABB0DB81E9
:1017C000ABB4DB85ABB2DB87AE50DF6EDF50E552EA
:0C17D000E552E5CFDAFFE7CFD9FF1200A9
:0417DC00D9CFE6FF7C
:1017E000DACFE6FFE1CFD9FFE2CFDAFFE652E652E9
:1017F000CE50DF6E010ECFCFDBFFDECF10F0DDCF9E
:1018000011F010C0F3FF11C0F4FFE552E552E552AC
:0A181000E5CFDAFFE7CFD9FF1200A1
:06181A00D9CFE6FFDACF92
:10182000E6FFE1CFD9FFE2CFDAFFE652E652FC0E47
:10183000DBCFDEFFDBCFDDFF010EDB50CF6EDF50F5
:10184000CE6EE552E552E552E5CFDAFFE7CFD9FF9C
:02185000120084
:0E185200D9CFE6FFDACFE6FFE1CFD9FFE2CF34
:10186000DAFFE652E652FC0EDBCFDEFFDBCFDDFF18
:10187000010EDB50D76EDF50D66EE552E552E552D1
:0A188000E5CFDAFFE7CFD9FF120031
:06188A00D9CFE6FFDACF22
:10189000E6FFE1CFD9FFE2CFDAFFFD0EDB507F0B91
:1018A000D56ED76AD66AF294FD0EDBAE02D0F28A0C
:1018B00001D0F29AD58EE552E5CFDAFFE7CFD9FF16
:0218C000120014
:0E18C200D9CFE6FFDACFE6FFE1CFD9FFE2CFC4
:1018D000DAFFC30EC214106EFD0EDB407F0B3C0B13
:1018E0001010C26EE552E5CFDAFFE7CFD9FF120044
:1018F000036A026A100EE76ED89006360736023683
:1019000003360B50025C0C50035805E30B50025E8B
:0C1910000C50035A062AE72EF0D71200F4
:04191C00D9CFE6FF3A
:10192000E1CFD9FF020EE126F70EDBCFDEFFDBCFE2
:10193000DDFF020EE15C02E2E16AE552E16EE55292
:06194000E7CFD9FF120001
:0A194600FF0EE350146E480E01D0AE
:101950004C0EE76EE72EFED7E76AE72EFED7142E71
:06196000F7D700001200A1
:0A196600000EF36E00EE00F00D0E0F
:1019700001D81200EA6002D0EE6AFCD7F350E960A9
:061980001200EE6AFCD724
:0A1986001CEE00F02CEE00F0F86AF1
:101990000F9C44EC0AF0EAEC0CF0DFEC06F0FBD70D
:0219A000120033
:0E19A200FF0EE350E84E1200000000D000D00F
:0819B00000D0E82EFAD7120066
:0819B800C450136E126AC35003
:0A19C0001210F36E13C0F4FF1200C2
:0619CA00C2909D9C12007A
:0419D000C2821200BD
:0219D4001200FF
:020000040030CA
:0100010008F6
:0100020019E4
:010003001EDE
:01000500807A
:01000600C039
:00000001FF
